:0804BD00C100C181021600001C
:1002B400A201E4FE33FFAD17AC161201B21203D84B
:1002C4008F187E00EF64017002B201EF64024E7079
:1002D4001D74E22517F51774FF3516F516D3E517C7
:1002E4009446E51694005006751600751746EF649B
:1002F400034E701C741E2517F517E43516F516C346
:10030400E5179454E51694014006751601751754C3
:10031400EF64044E7011B200200006F516F5178044
:10032400067516007517BEEF64054E7083A201FEB4
:1003340033FFE4F50DF50C750BB4750A42F50E7533
:080344000F961204510202B4ED
:0404CF007F02DFFECB
:0104D3002206
:1004A900AD07AC06ED1DAE0470011C4E60051204CB
:0404B900CF80F122DD
:1001B2008E128F138C148D15E51345127073D2A411
:1001C200C2A5C2A6C2A7AF15AE141204A9D2A4D268
:1001D200A5C2A6C2A7AF15AE141204A9C2A4D2A585
:1001E200C2A6C2A7AF15AE141204A9C2A4D2A5D248
:1001F200A6C2A7AF15AE141204A9C2A4C2A5D2A664
:10020200C2A7AF15AE141204A9C2A4C2A5D2A6D227
:10021200A7AF15AE141204A9C2A4C2A5C2A6D2A742
:10022200AF15AE141204A9D2A4C2A5C2A6D2A78049
:1002320079E513640145127078D2A4C2A5C2A6D290
:10024200A7AF15AE141204A9C2A4C2A5C2A6D2A712
:10025200AF15AE141204A9C2A4C2A5D2A6D2A7AFEA
:1002620015AE141204A9C2A4C2A5D2A6C2A7AF1584
:10027200AE141204A9C2A4D2A5D2A6C2A7AF15AECB
:10028200141204A9C2A4D2A5C2A6C2A7AF15AE1465
:100292001204A9D2A4D2A5C2A6C2A7AF15AE141247
:1002A20004A9D2A4C2A5C2A6C2A7AF15AE14120455
:0202B200A9227F
:040451008E088F0979
:10045500E4F510F511E4FBFA7934783FAF0DAE0CF5
:10046500AD0BAC0A120006C004C005C006C007AC3F
:1004750010AD11EC120121A804A905AA06AB07D0FD
:1004850007D006D005D0041200A35015AD0FAC0E51
:10049500AF09AE081201B20511E51170B80510805B
:0404A500B40204C6D3
:0904C600D2A4D2A5D2A6D2A7222D
:1003D800E4F5082090147FE87E031204A93090FD0C
:1003E8007FE87E031204A97508012091147FE87E36
:1003F800031204A93091FD7FE87E031204A9750851
:10040800022092147FE87E031204A93092FD7FE84F
:100418007E031204A97508032093147FE87E031253
:1004280004A93093FD7FE87E031204A9750804200F
:10043800B0147FE87E031204A930B0FD7FE87E0384
:080448001204A9750805AF08B4
:010450002289
:10000300020199EC5D046005E85904700302018F55
:1000130012015A580460F6EC4860F2EC7004FDFEDD
:10002300FF22C860DB2481C85009C39860025006D0
:100033000201969850CAF582E9294B4A7005AB82B2
:1000430002018575F0007C1A7880C3EF9BEE9AED70
:1000530099400DC3EF9BFFEE9AFEED99FDE842F048
:10006300DC23ACF0D0E0FFD0E0FED0E0FDAB82209B
:10007300E7101BEB60BAEC2CFCEF33FFEE33FEED25
:1000830033FD020171E803F830E705C0F075F000B5
:10009300EF2FFFEE33FEED33FD40B830E7C280AA09
:1000A30074F8CC6480CCC86480C8F58204604FC304
:1000B300EB9FF5F0EA9E42F0E99D42F0E89C45F0A3
:1000C300603C501DE5825FFFE582D313CB5BCBF42D
:1000D3002B5582FB50280ABA002409B90020088056
:1000E3001DE5825BFBE582D313CF5FCFF4C3132FF0
:1000F3005582FF50090EBE00050DBD00010CC3EB78
:100103009FF5F0EA9E42F0E99D42F0E89C45F060DD
:0901130007CC4820E701B3EC22FF
:10011C0075F020800E75F010800575F0087D007E5E
:10012C00007F003392D530D5031201A4EC3340107C
:10013C00EF33FFEE33FEED33FDEC33FCD5F0ED2267
:0E014C00E5F0247EA2D513CC92E7CDCEFF22A3
:10015A00E9D2E7C933E833F892D5EDD2E7CD33ECEB
:07016A0033FC5002B2D52264
:10017100EC30E7100FBF000C0EBE00080DBD0004EF
:100181000BEB6014A2D5EB13FCED92E7FD2274FF9B
:10019100FCFDFEFF22E480F8A2D574FF13FC7D80F4
:0301A100E480EF08
:0300000002034CAC
:0C034C00787FE4F6D8FD75812002039351
:0E01A400C3E49FFFE49EFEE49DFDE49CFC226C
:100358000202B4E493A3F8E493A34003F68001F205
:1003680008DFF48029E493A3F85407240CC8C333A6
:10037800C4540F4420C8834004F456800146F6DF75
:10038800E4800B01020408102040809004BDE47E44
:10039800019360BCA3FF543F30E509541FFEE4936A
:1003A800A360010ECF54C025E060A840B8E493A331
:1003B800FAE493A3F8E493A3C8C582C8CAC583CA5C
:1003C800F0A3C8C582C8CAC583CADFE9DEE780BE14
:0104C5000036
:00000001FF
